:100000000C942A000C943F000C943F000C943F0089
:100010000C943F000C943F000C943F000C943F0064
:100020000C943F000C943F000C943F000C943F0054
:100030000C943F000C943F000C943F000C943F0044
:100040000C943F000C943F000C943F000C943F0034
:100050000C943F0011241FBECFE5D8E0DEBFCDBF1A
:1000600010E0A0E6B0E0E2EBF6E002C005900D92F1
:10007000A236B107D9F70E947D010C9457030C9466
:10008000000017B887E886B9089597B18770987F00
:10009000892B87B9369A3699FECF24B135B1C9017B
:1000A0000895662311F0DC9A01C0DC98DD98A49ACB
:1000B000A59AA69AA79AAF98AE98AD98AC9887FDE6
:1000C000AF9A86FDAE9A85FDAD9A84FDAC9ADE9A14
:1000D00000C0DE98AF98AE98AD98AC9883FDAF9A0B
:1000E00082FDAE9A81FDAD9A80FDAC9ADE9A00C089
:1000F000DE98AC9AAD9AAE9AAF9A089580E097E2F6
:100100000197F1F784E090E00197F1F7DC98DD9A30
:10011000A498A598A698A798DE9A00C09C9B02C0B8
:1001200080E101C080E09D9980629E9980649F99E2
:100130008068DE9800C0DE9A00C09C9981609D991D
:1001400082609E9984609F998860DE9808951F93CD
:10015000182F0E947E00812F60E00E9451001F91A5
:1001600008951F93182F0E947E00812F61E00E9446
:1001700051001F910895662311F4805801C08054E6
:100180000E94A70008950E947E0090E0089581E0FB
:100190000E94A700089582E00E94A70008951F937F
:1001A000182F0E947E001A3049F4803410F080E04D
:1001B00001C080E480580E94A70004C0812F61E044
:1001C0000E9451001F910895CF93DF93EC0102C06C
:1001D0000E94CF0089918823D9F7DF91CF910895AC
:1001E000CF93DF93EC0102C00E94CF00FE01219665
:1001F00084918823C9F7DF91CF910895D49AD59A35
:10020000D69AA49AA59AA69AA79A80E09DE7019704
:10021000F1F7AD9AAC9ADE9A00C0DE9880E097E2E2
:100220000197F1F7DE9A00C0DE9880E890E0FC01CB
:100230003197F1F7DE9A00C0DE98FC013197F1F7B3
:10024000AC98DE9A00C0DE980197F1F788E20E9430
:10025000A70088E00E94A7000E94C70086E00E94D5
:10026000A7008CE00E94A70008958130910511F449
:1002700080E008C08230910511F481E003C003974B
:10028000C9F482E00E9445002FE431E0281B390BBD
:10029000442737FD4095542FCA01B9010E9402023C
:1002A00029EE36E241EB5FE30E9466020E94CF0135
:1002B000CB01089508950F931F93DF93CF93CDB78C
:1002C000DEB727970FB6F894DEBF0FBECDBF8E0105
:1002D0000F5F1F4FA8012AE030E00E94F102C80121
:1002E0000E94E40027960FB6F894DEBF0FBECDBF84
:1002F000CF91DF911F910F9108956F927F928F920E
:100300009F92AF92BF92CF92DF92EF92FF920F93A4
:100310001F93CF93DF930E94FE0017B887E886B93A
:10032000C0E9D1E080E060E00E94BB000E94C7000D
:1003300081E090E00E9435017C0182E090E00E9423
:1003400035015C0183E090E00E9435013C0100270B
:10035000F7FC0095102FC801B7010E945B0180E6F1
:1003600090E00E94E400CC24B7FCC094DC2CC601D1
:10037000B5010E945B0180E690E00E94E4008824C1
:1003800077FC8094982CC401B3010E945B0188E83B
:1003900093E1FE013197F1F70197D9F7C3CF04D06C
:1003A0006894B1118DC0089570D088F09F5790F077
:1003B000B92F9927B751A0F0D1F0660F771F881F8A
:1003C000991F1AF0BA95C9F712C0B13081F077D0F1
:1003D000B1E0089574C0672F782F8827B85F39F08F
:1003E000B93FCCF3869577956795B395D9F73EF4E9
:1003F00090958095709561957F4F8F4F9F4F089591
:10040000E89409C097FB3EF49095809570956195AE
:100410007F4F8F4F9F4F9923A9F0F92F96E9BB2764
:100420009395F695879577956795B795F111F8CFE0
:10043000FAF4BB0F11F460FF1BC06F5F7F4F8F4F4B
:100440009F4F16C0882311F096E911C0772321F041
:100450009EE8872F762F05C0662371F096E8862FD9
:1004600070E060E02AF09A95660F771F881FDAF730
:10047000880F9695879597F9089557FD9058440FE2
:10048000551F59F05F3F71F04795880F97FB991FF3
:1004900061F09F3F79F087950895121613061406B0
:1004A000551FF2CF4695F1DF08C01616170618063D
:1004B000991FF1CF86957105610508940895E89418
:1004C000BB2766277727CB0197F908950BD078C013
:1004D00069D028F06ED018F0952309F05AC05FC09B
:1004E0001124EECFCADFA0F3959FD1F3950F50E012
:1004F000551F629FF001729FBB27F00DB11D639FD6
:10050000AA27F00DB11DAA1F649F6627B00DA11D7B
:10051000661F829F2227B00DA11D621F739FB00D21
:10052000A11D621F839FA00D611D221F749F332791
:10053000A00D611D231F849F600D211D822F762F2A
:100540006A2F11249F5750408AF0E1F088234AF027
:10055000EE0FFF1FBB1F661F771F881F9150504073
:10056000A9F79E3F510570F014C0AACF5F3FECF38E
:10057000983EDCF3869577956795B795F795E7955F
:100580009F5FC1F7FE2B880F911D9695879597F970
:10059000089597F99F6780E870E060E008959FEF05
:1005A00080EC089500240A9416161706180609060A
:1005B000089500240A9412161306140605060895D9
:1005C000092E0394000C11F4882352F0BB0F40F461
:1005D000BF2B11F460FF04C06F5F7F4F8F4F9F4FA1
:1005E0000895FA01CF93FF93EF93223044F125321F
:1005F00034F5C22FE894CA3049F497FB3EF4909545
:100600008095709561957F4F8F4F9F4F2C2F33278B
:1006100044275527FF93EF930E943503EF91FF91F5
:10062000605D6A330CF0695D6193B901CA01605085
:1006300070408040904051F716F4CDE2C193108293
:100640008F919F91CF910C942503DC01FC01672FC2
:1006500071917723E1F7329704C07C916D93708399
:100660006291AE17BF07C8F30895A1E21A2EAA1B24
:10067000BB1BFD010DC0AA1FBB1FEE1FFF1FA21752
:10068000B307E407F50720F0A21BB30BE40BF50B4F
:10069000661F771F881F991F1A9469F760957095D8
:1006A000809590959B01AC01BD01CF010895F89410
:0206B000FFCF7A
:0206B200200026
:00000001FF
